{
  "contractName": "Canvas",
  "abi": [
    {
      "anonymous": false,
      "inputs": [
        {
          "indexed": false,
          "internalType": "uint8",
          "name": "_x",
          "type": "uint8"
        },
        {
          "indexed": false,
          "internalType": "uint8",
          "name": "_y",
          "type": "uint8"
        },
        {
          "indexed": false,
          "internalType": "uint48",
          "name": "_color",
          "type": "uint48"
        }
      ],
      "name": "PixelBought",
      "type": "event"
    },
    {
      "inputs": [
        {
          "internalType": "uint256",
          "name": "",
          "type": "uint256"
        },
        {
          "internalType": "uint256",
          "name": "",
          "type": "uint256"
        }
      ],
      "name": "pixels",
      "outputs": [
        {
          "internalType": "uint48",
          "name": "color",
          "type": "uint48"
        },
        {
          "internalType": "address",
          "name": "owner",
          "type": "address"
        }
      ],
      "stateMutability": "view",
      "type": "function"
    },
    {
      "inputs": [],
      "name": "startingPriceWei",
      "outputs": [
        {
          "internalType": "uint256",
          "name": "",
          "type": "uint256"
        }
      ],
      "stateMutability": "view",
      "type": "function"
    },
    {
      "inputs": [
        {
          "internalType": "uint8",
          "name": "_x",
          "type": "uint8"
        },
        {
          "internalType": "uint8",
          "name": "_y",
          "type": "uint8"
        },
        {
          "internalType": "uint48",
          "name": "_color",
          "type": "uint48"
        }
      ],
      "name": "buyPixel",
      "outputs": [],
      "stateMutability": "payable",
      "type": "function"
    },
    {
      "inputs": [
        {
          "internalType": "uint256",
          "name": "_row",
          "type": "uint256"
        }
      ],
      "name": "getRow",
      "outputs": [
        {
          "components": [
            {
              "internalType": "uint48",
              "name": "color",
              "type": "uint48"
            },
            {
              "internalType": "address",
              "name": "owner",
              "type": "address"
            }
          ],
          "internalType": "struct Canvas.S_Pixel[256]",
          "name": "",
          "type": "tuple[256]"
        }
      ],
      "stateMutability": "view",
      "type": "function"
    }
  ],
  "bytecode": "0x6080604052633b9aca00620100005534801561001a57600080fd5b50610a658061002a6000396000f3fe60806040526004361061003f5760003560e01c80632227dbc114610044578063303a36e21461006057806369d640fd1461009d578063df2645f1146100db575b600080fd5b61005e6004803603810190610059919061069a565b610106565b005b34801561006c57600080fd5b5061008760048036038101906100829190610635565b610406565b6040516100949190610827565b60405180910390f35b3480156100a957600080fd5b506100c460048036038101906100bf919061065e565b610518565b6040516100d292919061089e565b60405180910390f35b3480156100e757600080fd5b506100f0610587565b6040516100fd9190610883565b60405180910390f35b600073ffffffffffffffffffffffffffffffffffffffff1660008460ff16610100811061015c577f4e487b7100000000000000000000000000000000000000000000000000000000600052603260045260246000fd5b61010002018360ff16610100811061019d577f4e487b7100000000000000000000000000000000000000000000000000000000600052603260045260246000fd5b0160000160069054906101000a900473ffffffffffffffffffffffffffffffffffffffff1673ffffffffffffffffffffffffffffffffffffffff1614610218576040517f08c379a000000000000000000000000000000000000000000000000000000000815260040161020f90610843565b60405180910390fd5b6201000054341461025e576040517f08c379a000000000000000000000000000000000000000000000000000000000815260040161025590610863565b60405180910390fd5b8060008460ff16610100811061029d577f4e487b7100000000000000000000000000000000000000000000000000000000600052603260045260246000fd5b61010002018360ff1661010081106102de577f4e487b7100000000000000000000000000000000000000000000000000000000600052603260045260246000fd5b0160000160006101000a81548165ffffffffffff021916908365ffffffffffff1602179055503360008460ff166101008110610343577f4e487b7100000000000000000000000000000000000000000000000000000000600052603260045260246000fd5b61010002018360ff166101008110610384577f4e487b7100000000000000000000000000000000000000000000000000000000600052603260045260246000fd5b0160000160066101000a81548173ffffffffffffffffffffffffffffffffffffffff021916908373ffffffffffffffffffffffffffffffffffffffff1602179055507fd525ce4bac00aa2f3d48e5502c58bfca9f5349749734e5db24949c59c6c4e4638383836040516103f9939291906108c7565b60405180910390a1505050565b61040e61058f565b6000826101008110610449577f4e487b7100000000000000000000000000000000000000000000000000000000600052603260045260246000fd5b610100020161010080602002604051908101604052809291906000905b8282101561050d578382016040518060400160405290816000820160009054906101000a900465ffffffffffff1665ffffffffffff1665ffffffffffff1681526020016000820160069054906101000a900473ffffffffffffffffffffffffffffffffffffffff1673ffffffffffffffffffffffffffffffffffffffff1673ffffffffffffffffffffffffffffffffffffffff168152505081526020019060010190610466565b505050509050919050565b600082610100811061052957600080fd5b610100020181610100811061053d57600080fd5b01600091509150508060000160009054906101000a900465ffffffffffff16908060000160069054906101000a900473ffffffffffffffffffffffffffffffffffffffff16905082565b620100005481565b604051806120000160405280610100905b6105a86105be565b8152602001906001900390816105a05790505090565b6040518060400160405280600065ffffffffffff168152602001600073ffffffffffffffffffffffffffffffffffffffff1681525090565b600081359050610605816109ea565b92915050565b60008135905061061a81610a01565b92915050565b60008135905061062f81610a18565b92915050565b60006020828403121561064757600080fd5b6000610655848285016105f6565b91505092915050565b6000806040838503121561067157600080fd5b600061067f858286016105f6565b9250506020610690858286016105f6565b9150509250929050565b6000806000606084860312156106af57600080fd5b60006106bd86828701610620565b93505060206106ce86828701610620565b92505060406106df8682870161060b565b9150509250925092565b60006106f583836107bc565b60408301905092915050565b61070a8161093d565b82525050565b6107198161093d565b82525050565b61072881610908565b6107328184610921565b925061073d826108fe565b8060005b8381101561076e57815161075587826106e9565b965061076083610914565b925050600181019050610741565b505050505050565b600061078360138361092c565b915061078e82610998565b602082019050919050565b60006107a6601b8361092c565b91506107b1826109c1565b602082019050919050565b6040820160008201516107d260008501826107fa565b5060208201516107e56020850182610701565b50505050565b6107f48161096f565b82525050565b61080381610979565b82525050565b61081281610979565b82525050565b6108218161098b565b82525050565b60006140008201905061083d600083018461071f565b92915050565b6000602082019050818103600083015261085c81610776565b9050919050565b6000602082019050818103600083015261087c81610799565b9050919050565b600060208201905061089860008301846107eb565b92915050565b60006040820190506108b36000830185610809565b6108c06020830184610710565b9392505050565b60006060820190506108dc6000830186610818565b6108e96020830185610818565b6108f66040830184610809565b949350505050565b6000819050919050565b60006101009050919050565b6000602082019050919050565b600081905092915050565b600082825260208201905092915050565b60006109488261094f565b9050919050565b600073ffffffffffffffffffffffffffffffffffffffff82169050919050565b6000819050919050565b600065ffffffffffff82169050919050565b600060ff82169050919050565b7f506978656c20616c7265616479206f776e656400000000000000000000000000600082015250565b7f506978656c206d75737420626520706179656420696e2066756c6c0000000000600082015250565b6109f38161096f565b81146109fe57600080fd5b50565b610a0a81610979565b8114610a1557600080fd5b50565b610a218161098b565b8114610a2c57600080fd5b5056fea2646970667358221220e12a0abbee7578d5b03482da40cb529de0d5eec997c525a5156b65a77f4e833d64736f6c63430008010033",
  "immutableReferences": {},
  "source": "// SPDX-License-Identifier: MIT\npragma solidity ^0.8.1;\n\ncontract Canvas {\n\n  struct S_Pixel {\n    uint48 color;\n    address owner;\n  }\n\n  S_Pixel[256][256] public pixels;\n  uint public startingPriceWei = 1 gwei;\n\n  event PixelBought(uint8 _x, uint8 _y, uint48 _color);\n  \n  function buyPixel(uint8 _x, uint8 _y, uint48 _color) public payable {\n      require(pixels[_x][_y].owner == address(0), 'Pixel already owned');\n      require(msg.value == startingPriceWei, 'Pixel must be payed in full');\n      pixels[_x][_y].color = _color;\n      pixels[_x][_y].owner = msg.sender;\n      emit PixelBought(_x, _y, _color);\n  }\n\n  function getRow(uint _row) public view returns(S_Pixel[256] memory) {\n    return pixels[_row];\n  }\n}",
  "sourcePath": "/Users/isaac/Documents/workspace/pixel-dapp/contracts/Canvas.sol",
  "compiler": {
    "name": "solc",
    "version": "0.8.1+commit.df193b15.Emscripten.clang"
  },
  "schemaVersion": "3.4.2",
  "updatedAt": "2021-09-07T09:21:05.099Z",
  "devdoc": {
    "kind": "dev",
    "methods": {},
    "version": 1
  },
  "userdoc": {
    "kind": "user",
    "methods": {},
    "version": 1
  }
}