{
  "contractName": "Canvas",
  "abi": [
    {
      "anonymous": false,
      "inputs": [
        {
          "indexed": false,
          "internalType": "uint8",
          "name": "_x",
          "type": "uint8"
        },
        {
          "indexed": false,
          "internalType": "uint8",
          "name": "_y",
          "type": "uint8"
        },
        {
          "indexed": false,
          "internalType": "uint48",
          "name": "color",
          "type": "uint48"
        }
      ],
      "name": "PixelBought",
      "type": "event"
    },
    {
      "inputs": [
        {
          "internalType": "uint256",
          "name": "",
          "type": "uint256"
        },
        {
          "internalType": "uint256",
          "name": "",
          "type": "uint256"
        }
      ],
      "name": "pixels",
      "outputs": [
        {
          "internalType": "uint48",
          "name": "color",
          "type": "uint48"
        },
        {
          "internalType": "address",
          "name": "owner",
          "type": "address"
        }
      ],
      "stateMutability": "view",
      "type": "function"
    },
    {
      "inputs": [],
      "name": "startingPriceWei",
      "outputs": [
        {
          "internalType": "uint256",
          "name": "",
          "type": "uint256"
        }
      ],
      "stateMutability": "view",
      "type": "function"
    },
    {
      "inputs": [
        {
          "internalType": "uint8",
          "name": "_x",
          "type": "uint8"
        },
        {
          "internalType": "uint8",
          "name": "_y",
          "type": "uint8"
        },
        {
          "internalType": "uint48",
          "name": "_color",
          "type": "uint48"
        }
      ],
      "name": "buyPixel",
      "outputs": [],
      "stateMutability": "payable",
      "type": "function"
    }
  ],
  "bytecode": "0x6080604052633b9aca00620100005534801561001a57600080fd5b506107758061002a6000396000f3fe6080604052600436106100345760003560e01c80632227dbc11461003957806369d640fd14610055578063df2645f114610093575b600080fd5b610053600480360381019061004e91906104b0565b6100be565b005b34801561006157600080fd5b5061007c60048036038101906100779190610474565b6103be565b60405161008a9291906105dc565b60405180910390f35b34801561009f57600080fd5b506100a861042d565b6040516100b591906105c1565b60405180910390f35b600073ffffffffffffffffffffffffffffffffffffffff1660008460ff166101008110610114577f4e487b7100000000000000000000000000000000000000000000000000000000600052603260045260246000fd5b61010002018360ff166101008110610155577f4e487b7100000000000000000000000000000000000000000000000000000000600052603260045260246000fd5b0160000160069054906101000a900473ffffffffffffffffffffffffffffffffffffffff1673ffffffffffffffffffffffffffffffffffffffff16146101d0576040517f08c379a00000000000000000000000000000000000000000000000000000000081526004016101c790610581565b60405180910390fd5b62010000543414610216576040517f08c379a000000000000000000000000000000000000000000000000000000000815260040161020d906105a1565b60405180910390fd5b8060008460ff166101008110610255577f4e487b7100000000000000000000000000000000000000000000000000000000600052603260045260246000fd5b61010002018360ff166101008110610296577f4e487b7100000000000000000000000000000000000000000000000000000000600052603260045260246000fd5b0160000160006101000a81548165ffffffffffff021916908365ffffffffffff1602179055503360008460ff1661010081106102fb577f4e487b7100000000000000000000000000000000000000000000000000000000600052603260045260246000fd5b61010002018360ff16610100811061033c577f4e487b7100000000000000000000000000000000000000000000000000000000600052603260045260246000fd5b0160000160066101000a81548173ffffffffffffffffffffffffffffffffffffffff021916908373ffffffffffffffffffffffffffffffffffffffff1602179055507fd525ce4bac00aa2f3d48e5502c58bfca9f5349749734e5db24949c59c6c4e4638383836040516103b193929190610605565b60405180910390a1505050565b60008261010081106103cf57600080fd5b61010002018161010081106103e357600080fd5b01600091509150508060000160009054906101000a900465ffffffffffff16908060000160069054906101000a900473ffffffffffffffffffffffffffffffffffffffff16905082565b620100005481565b600081359050610444816106fa565b92915050565b60008135905061045981610711565b92915050565b60008135905061046e81610728565b92915050565b6000806040838503121561048757600080fd5b600061049585828601610435565b92505060206104a685828601610435565b9150509250929050565b6000806000606084860312156104c557600080fd5b60006104d38682870161045f565b93505060206104e48682870161045f565b92505060406104f58682870161044a565b9150509250925092565b6105088161064d565b82525050565b600061051b60138361063c565b9150610526826106a8565b602082019050919050565b600061053e601b8361063c565b9150610549826106d1565b602082019050919050565b61055d8161067f565b82525050565b61056c81610689565b82525050565b61057b8161069b565b82525050565b6000602082019050818103600083015261059a8161050e565b9050919050565b600060208201905081810360008301526105ba81610531565b9050919050565b60006020820190506105d66000830184610554565b92915050565b60006040820190506105f16000830185610563565b6105fe60208301846104ff565b9392505050565b600060608201905061061a6000830186610572565b6106276020830185610572565b6106346040830184610563565b949350505050565b600082825260208201905092915050565b60006106588261065f565b9050919050565b600073ffffffffffffffffffffffffffffffffffffffff82169050919050565b6000819050919050565b600065ffffffffffff82169050919050565b600060ff82169050919050565b7f506978656c20616c7265616479206f776e656400000000000000000000000000600082015250565b7f506978656c206d75737420626520706179656420696e2066756c6c0000000000600082015250565b6107038161067f565b811461070e57600080fd5b50565b61071a81610689565b811461072557600080fd5b50565b6107318161069b565b811461073c57600080fd5b5056fea2646970667358221220c8c8b8c5e6365091b0bf63555f60671bb7803321ba261321d624ca0634cb7f5a64736f6c63430008010033",
  "immutableReferences": {},
  "source": "// SPDX-License-Identifier: MIT\npragma solidity ^0.8.1;\n\ncontract Canvas {\n\n  struct S_Pixel {\n    uint48 color;\n    address owner;\n  }\n\n  S_Pixel[256][256] public pixels;\n  uint public startingPriceWei = 1 gwei;\n\n  event PixelBought(uint8 _x, uint8 _y, uint48 color);\n  \n  function buyPixel(uint8 _x, uint8 _y, uint48 _color) public payable {\n      require(pixels[_x][_y].owner == address(0), 'Pixel already owned');\n      require(msg.value == startingPriceWei, 'Pixel must be payed in full');\n      pixels[_x][_y].color = _color;\n      pixels[_x][_y].owner = msg.sender;\n      emit PixelBought(_x, _y, _color);\n  }\n}",
  "sourcePath": "/Users/isaac/Documents/workspace/pixel-dapp/contracts/Canvas.sol",
  "compiler": {
    "name": "solc",
    "version": "0.8.1+commit.df193b15.Emscripten.clang"
  },
  "schemaVersion": "3.4.2",
  "updatedAt": "2021-09-07T04:23:07.063Z",
  "devdoc": {
    "kind": "dev",
    "methods": {},
    "version": 1
  },
  "userdoc": {
    "kind": "user",
    "methods": {},
    "version": 1
  }
}